{
  "contractName": "Max",
  "abi": [
    {
      "inputs": [],
      "payable": false,
      "stateMutability": "nonpayable",
      "type": "constructor"
    },
    {
      "constant": false,
      "inputs": [
        {
          "internalType": "address",
          "name": "ad",
          "type": "address"
        }
      ],
      "name": "getRoleOf",
      "outputs": [
        {
          "internalType": "string",
          "name": "txt",
          "type": "string"
        }
      ],
      "payable": false,
      "stateMutability": "nonpayable",
      "type": "function"
    }
  ],
  "bytecode": "0x608060405234801561001057600080fd5b506103e86000803373ffffffffffffffffffffffffffffffffffffffff1673ffffffffffffffffffffffffffffffffffffffff168152602001908152602001600020819055506000600160003373ffffffffffffffffffffffffffffffffffffffff1673ffffffffffffffffffffffffffffffffffffffff16815260200190815260200160002060006101000a81548160ff021916908360028111156100b257fe5b0217905550610368806100c66000396000f3fe608060405234801561001057600080fd5b506004361061002b5760003560e01c8063e4d92da114610030575b600080fd5b6100726004803603602081101561004657600080fd5b81019080803573ffffffffffffffffffffffffffffffffffffffff1690602001909291905050506100ed565b6040518080602001828103825283818151815260200191508051906020019080838360005b838110156100b2578082015181840152602081019050610097565b50505050905090810190601f1680156100df5780820380516001836020036101000a031916815260200191505b509250505060405180910390f35b60606040518060600160405280602c8152602001610308602c9139905060028081111561011657fe5b600160008473ffffffffffffffffffffffffffffffffffffffff1673ffffffffffffffffffffffffffffffffffffffff16815260200190815260200160002060009054906101000a900460ff16600281111561016e57fe5b14156101b1576040518060400160405280600481526020017f557365720000000000000000000000000000000000000000000000000000000081525090506102ff565b600160028111156101be57fe5b600160008473ffffffffffffffffffffffffffffffffffffffff1673ffffffffffffffffffffffffffffffffffffffff16815260200190815260200160002060009054906101000a900460ff16600281111561021657fe5b1415610259576040518060400160405280600781526020017f4d616e616765720000000000000000000000000000000000000000000000000081525090506102fe565b6000600281111561026657fe5b600160008473ffffffffffffffffffffffffffffffffffffffff1673ffffffffffffffffffffffffffffffffffffffff16815260200190815260200160002060009054906101000a900460ff1660028111156102be57fe5b14156102fd576040518060400160405280600581526020017f41646d696e00000000000000000000000000000000000000000000000000000081525090505b5b5b80905091905056fed09dd0b5d18220d182d0b0d0bad0bed0b3d0be20d0bfd0bed0bbd18cd0b7d0bed0b2d0b0d182d0b5d0bbd18fa265627a7a723158204a8548ff46b3b6af22249dfbced5482e764011420780541d8bb21278c190540964736f6c63430005100032",
  "source": "pragma solidity 0.5.16;\r\ncontract Max{\r\n    mapping(address => uint256) private balaces;\r\n    mapping(address => role) private roles;\r\n    enum role{\r\n        Admin,\r\n        Manager,\r\n        User\r\n    }\r\n\r\n    constructor() public{\r\n        balaces[msg.sender] = 1000;\r\n        roles[msg.sender] = role.Admin;\r\n    }\r\n\r\n    function getRoleOf(address ad) public returns(string memory txt){\r\n        txt = \"Нет такого пользователя\";\r\n        if(roles[ad] == role.User){\r\n            txt = \"User\";\r\n        } else if(roles[ad] == role.Manager){\r\n            txt = \"Manager\";\r\n        } else if(roles[ad] == role.Admin){\r\n            txt = \"Admin\";\r\n        }\r\n        return txt;\r\n    }\r\n}",
  "sourcePath": "C:/Users/ashwani/Desktop/Steller_Fork/contracts/SimpleStorage.sol",
  "compiler": {
    "name": "solc",
    "version": "0.5.16+commit.9c3226ce.Emscripten.clang"
  },
  "schemaVersion": "3.4.1",
  "updatedAt": "2021-06-30T14:46:45.051Z",
  "devdoc": {
    "methods": {}
  },
  "userdoc": {
    "methods": {}
  }
}